{
  "address": "0x3a488ADBc680199545Eadc72F77BA2B5C718fC71",
  "abi": [
    {
      "inputs": [],
      "stateMutability": "nonpayable",
      "type": "constructor"
    },
    {
      "anonymous": false,
      "inputs": [
        {
          "indexed": true,
          "internalType": "uint256",
          "name": "proposalId",
          "type": "uint256"
        },
        {
          "indexed": true,
          "internalType": "address",
          "name": "governance",
          "type": "address"
        },
        {
          "indexed": false,
          "internalType": "string",
          "name": "title",
          "type": "string"
        },
        {
          "indexed": false,
          "internalType": "string",
          "name": "proposal",
          "type": "string"
        },
        {
          "indexed": false,
          "internalType": "uint256",
          "name": "startTime",
          "type": "uint256"
        },
        {
          "indexed": false,
          "internalType": "uint256",
          "name": "amountOfVotes",
          "type": "uint256"
        },
        {
          "indexed": false,
          "internalType": "enum Voting.SITUATION",
          "name": "situation",
          "type": "uint8"
        }
      ],
      "name": "ProposalMade",
      "type": "event"
    },
    {
      "anonymous": false,
      "inputs": [
        {
          "indexed": true,
          "internalType": "address",
          "name": "governance",
          "type": "address"
        },
        {
          "indexed": true,
          "internalType": "address",
          "name": "owner",
          "type": "address"
        },
        {
          "indexed": false,
          "internalType": "string",
          "name": "descriptionIpfsHash",
          "type": "string"
        },
        {
          "indexed": false,
          "internalType": "uint256",
          "name": "votingTime",
          "type": "uint256"
        },
        {
          "indexed": false,
          "internalType": "uint256",
          "name": "commentTime",
          "type": "uint256"
        },
        {
          "indexed": false,
          "internalType": "uint256",
          "name": "percentageOfAgreement",
          "type": "uint256"
        }
      ],
      "name": "ProtocolAdded",
      "type": "event"
    },
    {
      "anonymous": false,
      "inputs": [
        {
          "indexed": true,
          "internalType": "uint256",
          "name": "proposalId",
          "type": "uint256"
        },
        {
          "indexed": true,
          "internalType": "address",
          "name": "voter",
          "type": "address"
        },
        {
          "indexed": false,
          "internalType": "enum Voting.OPTION",
          "name": "vote",
          "type": "uint8"
        }
      ],
      "name": "VotedForProposal",
      "type": "event"
    },
    {
      "anonymous": false,
      "inputs": [
        {
          "indexed": true,
          "internalType": "uint256",
          "name": "proposalId",
          "type": "uint256"
        },
        {
          "indexed": false,
          "internalType": "enum Voting.SITUATION",
          "name": "situation",
          "type": "uint8"
        }
      ],
      "name": "VotesSettled",
      "type": "event"
    },
    {
      "inputs": [
        {
          "internalType": "address",
          "name": "_governance",
          "type": "address"
        },
        {
          "internalType": "address",
          "name": "_owner",
          "type": "address"
        },
        {
          "internalType": "string",
          "name": "_descriptionIpfsHash",
          "type": "string"
        },
        {
          "internalType": "uint256",
          "name": "_votingTime",
          "type": "uint256"
        },
        {
          "internalType": "uint256",
          "name": "_commentTime",
          "type": "uint256"
        },
        {
          "internalType": "uint256",
          "name": "_percentageOfAgreement",
          "type": "uint256"
        }
      ],
      "name": "addProtocol",
      "outputs": [],
      "stateMutability": "nonpayable",
      "type": "function"
    },
    {
      "inputs": [],
      "name": "currentProposal",
      "outputs": [
        {
          "internalType": "uint256",
          "name": "",
          "type": "uint256"
        }
      ],
      "stateMutability": "view",
      "type": "function"
    },
    {
      "inputs": [],
      "name": "currentProtocol",
      "outputs": [
        {
          "internalType": "uint256",
          "name": "",
          "type": "uint256"
        }
      ],
      "stateMutability": "view",
      "type": "function"
    },
    {
      "inputs": [
        {
          "internalType": "address",
          "name": "_governance",
          "type": "address"
        },
        {
          "internalType": "string",
          "name": "_title",
          "type": "string"
        },
        {
          "internalType": "string",
          "name": "_description",
          "type": "string"
        }
      ],
      "name": "makeProposal",
      "outputs": [],
      "stateMutability": "nonpayable",
      "type": "function"
    },
    {
      "inputs": [
        {
          "internalType": "uint256",
          "name": "",
          "type": "uint256"
        }
      ],
      "name": "proposals",
      "outputs": [
        {
          "internalType": "uint256",
          "name": "id",
          "type": "uint256"
        },
        {
          "internalType": "address",
          "name": "protocolAddress",
          "type": "address"
        },
        {
          "internalType": "string",
          "name": "title",
          "type": "string"
        },
        {
          "internalType": "string",
          "name": "proposal",
          "type": "string"
        },
        {
          "internalType": "uint256",
          "name": "startTime",
          "type": "uint256"
        },
        {
          "internalType": "uint256",
          "name": "amountOfVotes",
          "type": "uint256"
        },
        {
          "internalType": "enum Voting.SITUATION",
          "name": "situation",
          "type": "uint8"
        }
      ],
      "stateMutability": "view",
      "type": "function"
    },
    {
      "inputs": [
        {
          "internalType": "address",
          "name": "",
          "type": "address"
        }
      ],
      "name": "protocols",
      "outputs": [
        {
          "internalType": "address",
          "name": "owner",
          "type": "address"
        },
        {
          "internalType": "string",
          "name": "descriptionIpfsHash",
          "type": "string"
        },
        {
          "internalType": "uint256",
          "name": "votingTime",
          "type": "uint256"
        },
        {
          "internalType": "uint256",
          "name": "commentTime",
          "type": "uint256"
        },
        {
          "internalType": "uint256",
          "name": "percentageOfAgreement",
          "type": "uint256"
        }
      ],
      "stateMutability": "view",
      "type": "function"
    },
    {
      "inputs": [
        {
          "internalType": "uint256",
          "name": "_proposalId",
          "type": "uint256"
        }
      ],
      "name": "settleVotes",
      "outputs": [],
      "stateMutability": "nonpayable",
      "type": "function"
    },
    {
      "inputs": [
        {
          "internalType": "uint256",
          "name": "_proposalId",
          "type": "uint256"
        },
        {
          "internalType": "enum Voting.OPTION",
          "name": "_vote",
          "type": "uint8"
        }
      ],
      "name": "voteForProposal",
      "outputs": [],
      "stateMutability": "nonpayable",
      "type": "function"
    },
    {
      "inputs": [
        {
          "internalType": "uint256",
          "name": "",
          "type": "uint256"
        },
        {
          "internalType": "address",
          "name": "",
          "type": "address"
        }
      ],
      "name": "voted",
      "outputs": [
        {
          "internalType": "bool",
          "name": "",
          "type": "bool"
        }
      ],
      "stateMutability": "view",
      "type": "function"
    },
    {
      "inputs": [
        {
          "internalType": "uint256",
          "name": "",
          "type": "uint256"
        },
        {
          "internalType": "uint256",
          "name": "",
          "type": "uint256"
        }
      ],
      "name": "votes",
      "outputs": [
        {
          "internalType": "address",
          "name": "voter",
          "type": "address"
        },
        {
          "internalType": "enum Voting.OPTION",
          "name": "vote",
          "type": "uint8"
        }
      ],
      "stateMutability": "view",
      "type": "function"
    }
  ],
  "transactionHash": "0xa47ec4c76a70a224166fc9b38ceb714257b9650ab66c52a92e4d260899eb225d",
  "args": [],
  "numDeployments": 1,
  "solcInputHash": "5abf7b8095439c15825564123d5ca408",
  "bytecode": "0x608060405234801561001057600080fd5b506000808055600155611254806100286000396000f3fe608060405234801561001057600080fd5b506004361061009e5760003560e01c80635277b4ae116100665780635277b4ae1461012b57806383b22441146101695780638d0a2b151461017c578063bd1263121461018f578063c6e36a32146101a257600080fd5b8063013cf08b146100a3578063206e4123146100d257806326638a0a146100e75780632b49d4251461010b57806351e1936614610122575b600080fd5b6100b66100b1366004610be2565b6101c3565b6040516100c99796959493929190610c78565b60405180910390f35b6100e56100e0366004610be2565b61031d565b005b6100fa6100f5366004610cfa565b6105d2565b6040516100c9959493929190610d1c565b61011460015481565b6040519081526020016100c9565b61011460005481565b610159610139366004610d5d565b600560209081526000928352604080842090915290825290205460ff1681565b60405190151581526020016100c9565b6100e5610177366004610d89565b610693565b6100e561018a366004610e60565b6108fe565b6100e561019d366004610ed4565b610a5b565b6101b56101b0366004610f4e565b610b9f565b6040516100c9929190610f70565b60036020526000908152604090208054600182015460028301805492936001600160a01b03909216926101f590610f96565b80601f016020809104026020016040519081016040528092919081815260200182805461022190610f96565b801561026e5780601f106102435761010080835404028352916020019161026e565b820191906000526020600020905b81548152906001019060200180831161025157829003601f168201915b50505050509080600301805461028390610f96565b80601f01602080910402602001604051908101604052809291908181526020018280546102af90610f96565b80156102fc5780601f106102d1576101008083540402835291602001916102fc565b820191906000526020600020905b8154815290600101906020018083116102df57829003601f168201915b50505050600483015460058401546006909401549293909290915060ff1687565b60008181526003602052604081206006015460ff16600281111561034357610343610c41565b1480156103915750600081815260036020818152604080842060018101546001600160a01b03168552600280845291852090910154938590529190526004015461038d9190610fe6565b4210155b6103d55760405162461bcd60e51b815260206004820152601060248201526f159bdd1a5b99c81b9bdd08195b99195960821b60448201526064015b60405180910390fd5b600081815260036020908152604080832060018101546001600160a01b0316845260029092528220909180805b60008681526004602052604090205481101561053557600086815260046020526040812080548390811061043857610438610fff565b6000918252602082206001890154910180546040516370a0823160e01b81526001600160a01b039182166004820152919450909116906370a0823190602401602060405180830381865afa158015610494573d6000803e3d6000fd5b505050506040513d601f19601f820116820180604052508101906104b89190611015565b905060008254600160a01b900460ff1660028111156104d9576104d9610c41565b036104ef576104e88186610fe6565b9450610520565b60028254600160a01b900460ff16600281111561050e5761050e610c41565b036105205761051d8185610fe6565b93505b5050808061052d9061102e565b915050610402565b5060048301546105458284610fe6565b61055784670de0b6b3a7640000611047565b610561919061105e565b1061057a5760068401805460ff1916600117905561058a565b60068401805460ff191660021790555b600684015460405186917f6816c9d2a12cbc0ba7ee335e2e0786569a67a7377501ecb0e2fa80fcc569670d916105c39160ff1690611080565b60405180910390a25050505050565b600260205260009081526040902080546001820180546001600160a01b0390921692916105fe90610f96565b80601f016020809104026020016040519081016040528092919081815260200182805461062a90610f96565b80156106775780601f1061064c57610100808354040283529160200191610677565b820191906000526020600020905b81548152906001019060200180831161065a57829003601f168201915b5050505050908060020154908060030154908060040154905085565b6000828152600560209081526040808320338452909152902054829060ff16156106ef5760405162461bcd60e51b815260206004820152600d60248201526c105b1c9958591e481d9bdd1959609a1b60448201526064016103cc565b600083815260036020908152604080832060018101546001600160a01b0316845260029092528220909184600281111561072b5761072b610c41565b14806107485750600184600281111561074657610746610c41565b145b806107645750600284600281111561076257610762610c41565b145b61079f5760405162461bcd60e51b815260206004820152600c60248201526b496e76616c696420766f746560a01b60448201526064016103cc565b42816002015483600401546107b49190610fe6565b10156107ef5760405162461bcd60e51b815260206004820152600a602482015269151a5b5948195b99195960b21b60448201526064016103cc565b600460008681526020019081526020016000206040518060400160405280336001600160a01b0316815260200186600281111561082e5761082e610c41565b9052815460018101835560009283526020928390208251910180546001600160a01b031981166001600160a01b03909316928317825593830151929390929183916001600160a81b03191617600160a01b83600281111561089157610891610c41565b02179055505050600085815260056020908152604080832033808552925291829020805460ff19166001179055905186907f1a5a98bedb74e24d5201376f066be0fb9fddbb3837ddbae32a07846519a7461b906108ef908890611080565b60405180910390a35050505050565b6040518060e001604052806001548152602001846001600160a01b03168152602001838152602001828152602001428152602001600081526020016000600281111561094c5761094c610c41565b905260018054600090815260036020908152604091829020845181559084015192810180546001600160a01b0319166001600160a01b0390941693909317909255820151600282019061099f90826110e2565b50606082015160038201906109b490826110e2565b506080820151600482015560a0820151600582015560c082015160068201805460ff191660018360028111156109ec576109ec610c41565b0217905550905050826001600160a01b03166001547f36fb31d64cc93ead287380dc8324a7751b0b08ac98d233876272653c9af06da1848442600080604051610a399594939291906111a2565b60405180910390a360018054906000610a518361102e565b9190505550505050565b6001600160a01b0380871660009081526002602052604090205487911615610ab65760405162461bcd60e51b815260206004820152600e60248201526d416c72656164792065786973747360901b60448201526064016103cc565b6040805160a0810182526001600160a01b038881168252602080830189815283850189905260608401889052608084018790528b831660009081526002909252939020825181546001600160a01b031916921691909117815591519091906001820190610b2390826110e2565b50604082015181600201556060820151816003015560808201518160040155905050856001600160a01b0316876001600160a01b03167fa3607b96757d4c561fbb23eb51d589e1665ddbaa4da9dc50806449d55266cebd87878787604051610b8e94939291906111ef565b60405180910390a350505050505050565b60046020528160005260406000208181548110610bbb57600080fd5b6000918252602090912001546001600160a01b0381169250600160a01b900460ff16905082565b600060208284031215610bf457600080fd5b5035919050565b6000815180845260005b81811015610c2157602081850181015186830182015201610c05565b506000602082860101526020601f19601f83011685010191505092915050565b634e487b7160e01b600052602160045260246000fd5b60038110610c7557634e487b7160e01b600052602160045260246000fd5b50565b8781526001600160a01b038716602082015260e060408201819052600090610ca290830188610bfb565b8281036060840152610cb48188610bfb565b9150508460808301528360a0830152610ccc83610c57565b8260c083015298975050505050505050565b80356001600160a01b0381168114610cf557600080fd5b919050565b600060208284031215610d0c57600080fd5b610d1582610cde565b9392505050565b6001600160a01b038616815260a060208201819052600090610d4090830187610bfb565b604083019590955250606081019290925260809091015292915050565b60008060408385031215610d7057600080fd5b82359150610d8060208401610cde565b90509250929050565b60008060408385031215610d9c57600080fd5b82359150602083013560038110610db257600080fd5b809150509250929050565b634e487b7160e01b600052604160045260246000fd5b600082601f830112610de457600080fd5b813567ffffffffffffffff80821115610dff57610dff610dbd565b604051601f8301601f19908116603f01168101908282118183101715610e2757610e27610dbd565b81604052838152866020858801011115610e4057600080fd5b836020870160208301376000602085830101528094505050505092915050565b600080600060608486031215610e7557600080fd5b610e7e84610cde565b9250602084013567ffffffffffffffff80821115610e9b57600080fd5b610ea787838801610dd3565b93506040860135915080821115610ebd57600080fd5b50610eca86828701610dd3565b9150509250925092565b60008060008060008060c08789031215610eed57600080fd5b610ef687610cde565b9550610f0460208801610cde565b9450604087013567ffffffffffffffff811115610f2057600080fd5b610f2c89828a01610dd3565b945050606087013592506080870135915060a087013590509295509295509295565b60008060408385031215610f6157600080fd5b50508035926020909101359150565b6001600160a01b038316815260408101610f8983610c57565b8260208301529392505050565b600181811c90821680610faa57607f821691505b602082108103610fca57634e487b7160e01b600052602260045260246000fd5b50919050565b634e487b7160e01b600052601160045260246000fd5b80820180821115610ff957610ff9610fd0565b92915050565b634e487b7160e01b600052603260045260246000fd5b60006020828403121561102757600080fd5b5051919050565b60006001820161104057611040610fd0565b5060010190565b8082028115828204841417610ff957610ff9610fd0565b60008261107b57634e487b7160e01b600052601260045260246000fd5b500490565b6020810161108d83610c57565b91905290565b601f8211156110dd57600081815260208120601f850160051c810160208610156110ba5750805b601f850160051c820191505b818110156110d9578281556001016110c6565b5050505b505050565b815167ffffffffffffffff8111156110fc576110fc610dbd565b6111108161110a8454610f96565b84611093565b602080601f831160018114611145576000841561112d5750858301515b600019600386901b1c1916600185901b1785556110d9565b600085815260208120601f198616915b8281101561117457888601518255948401946001909101908401611155565b50858210156111925787850151600019600388901b60f8161c191681555b5050505050600190811b01905550565b60a0815260006111b560a0830188610bfb565b82810360208401526111c78188610bfb565b9150508460408301528360608301526111df83610c57565b8260808301529695505050505050565b6080815260006112026080830187610bfb565b602083019590955250604081019290925260609091015291905056fea2646970667358221220e9f08c8d9b83237e4d2b61feddd7a262657e2c70353e6b52d3d030d810c8062d64736f6c63430008130033",
  "devdoc": {
    "kind": "dev",
    "methods": {},
    "version": 1
  },
  "userdoc": {
    "kind": "user",
    "methods": {},
    "version": 1
  },
  "storageLayout": {
    "storage": [
      {
        "astId": 82,
        "contract": "contracts/Voting.sol:Voting",
        "label": "currentProtocol",
        "offset": 0,
        "slot": "0",
        "type": "t_uint256"
      },
      {
        "astId": 84,
        "contract": "contracts/Voting.sol:Voting",
        "label": "currentProposal",
        "offset": 0,
        "slot": "1",
        "type": "t_uint256"
      },
      {
        "astId": 89,
        "contract": "contracts/Voting.sol:Voting",
        "label": "protocols",
        "offset": 0,
        "slot": "2",
        "type": "t_mapping(t_address,t_struct(Protocol)172_storage)"
      },
      {
        "astId": 94,
        "contract": "contracts/Voting.sol:Voting",
        "label": "proposals",
        "offset": 0,
        "slot": "3",
        "type": "t_mapping(t_uint256,t_struct(Proposal)188_storage)"
      },
      {
        "astId": 100,
        "contract": "contracts/Voting.sol:Voting",
        "label": "votes",
        "offset": 0,
        "slot": "4",
        "type": "t_mapping(t_uint256,t_array(t_struct(Vote)194_storage)dyn_storage)"
      },
      {
        "astId": 106,
        "contract": "contracts/Voting.sol:Voting",
        "label": "voted",
        "offset": 0,
        "slot": "5",
        "type": "t_mapping(t_uint256,t_mapping(t_address,t_bool))"
      }
    ],
    "types": {
      "t_address": {
        "encoding": "inplace",
        "label": "address",
        "numberOfBytes": "20"
      },
      "t_array(t_struct(Vote)194_storage)dyn_storage": {
        "base": "t_struct(Vote)194_storage",
        "encoding": "dynamic_array",
        "label": "struct Voting.Vote[]",
        "numberOfBytes": "32"
      },
      "t_bool": {
        "encoding": "inplace",
        "label": "bool",
        "numberOfBytes": "1"
      },
      "t_enum(OPTION)161": {
        "encoding": "inplace",
        "label": "enum Voting.OPTION",
        "numberOfBytes": "1"
      },
      "t_enum(SITUATION)157": {
        "encoding": "inplace",
        "label": "enum Voting.SITUATION",
        "numberOfBytes": "1"
      },
      "t_mapping(t_address,t_bool)": {
        "encoding": "mapping",
        "key": "t_address",
        "label": "mapping(address => bool)",
        "numberOfBytes": "32",
        "value": "t_bool"
      },
      "t_mapping(t_address,t_struct(Protocol)172_storage)": {
        "encoding": "mapping",
        "key": "t_address",
        "label": "mapping(address => struct Voting.Protocol)",
        "numberOfBytes": "32",
        "value": "t_struct(Protocol)172_storage"
      },
      "t_mapping(t_uint256,t_array(t_struct(Vote)194_storage)dyn_storage)": {
        "encoding": "mapping",
        "key": "t_uint256",
        "label": "mapping(uint256 => struct Voting.Vote[])",
        "numberOfBytes": "32",
        "value": "t_array(t_struct(Vote)194_storage)dyn_storage"
      },
      "t_mapping(t_uint256,t_mapping(t_address,t_bool))": {
        "encoding": "mapping",
        "key": "t_uint256",
        "label": "mapping(uint256 => mapping(address => bool))",
        "numberOfBytes": "32",
        "value": "t_mapping(t_address,t_bool)"
      },
      "t_mapping(t_uint256,t_struct(Proposal)188_storage)": {
        "encoding": "mapping",
        "key": "t_uint256",
        "label": "mapping(uint256 => struct Voting.Proposal)",
        "numberOfBytes": "32",
        "value": "t_struct(Proposal)188_storage"
      },
      "t_string_storage": {
        "encoding": "bytes",
        "label": "string",
        "numberOfBytes": "32"
      },
      "t_struct(Proposal)188_storage": {
        "encoding": "inplace",
        "label": "struct Voting.Proposal",
        "members": [
          {
            "astId": 174,
            "contract": "contracts/Voting.sol:Voting",
            "label": "id",
            "offset": 0,
            "slot": "0",
            "type": "t_uint256"
          },
          {
            "astId": 176,
            "contract": "contracts/Voting.sol:Voting",
            "label": "protocolAddress",
            "offset": 0,
            "slot": "1",
            "type": "t_address"
          },
          {
            "astId": 178,
            "contract": "contracts/Voting.sol:Voting",
            "label": "title",
            "offset": 0,
            "slot": "2",
            "type": "t_string_storage"
          },
          {
            "astId": 180,
            "contract": "contracts/Voting.sol:Voting",
            "label": "proposal",
            "offset": 0,
            "slot": "3",
            "type": "t_string_storage"
          },
          {
            "astId": 182,
            "contract": "contracts/Voting.sol:Voting",
            "label": "startTime",
            "offset": 0,
            "slot": "4",
            "type": "t_uint256"
          },
          {
            "astId": 184,
            "contract": "contracts/Voting.sol:Voting",
            "label": "amountOfVotes",
            "offset": 0,
            "slot": "5",
            "type": "t_uint256"
          },
          {
            "astId": 187,
            "contract": "contracts/Voting.sol:Voting",
            "label": "situation",
            "offset": 0,
            "slot": "6",
            "type": "t_enum(SITUATION)157"
          }
        ],
        "numberOfBytes": "224"
      },
      "t_struct(Protocol)172_storage": {
        "encoding": "inplace",
        "label": "struct Voting.Protocol",
        "members": [
          {
            "astId": 163,
            "contract": "contracts/Voting.sol:Voting",
            "label": "owner",
            "offset": 0,
            "slot": "0",
            "type": "t_address"
          },
          {
            "astId": 165,
            "contract": "contracts/Voting.sol:Voting",
            "label": "descriptionIpfsHash",
            "offset": 0,
            "slot": "1",
            "type": "t_string_storage"
          },
          {
            "astId": 167,
            "contract": "contracts/Voting.sol:Voting",
            "label": "votingTime",
            "offset": 0,
            "slot": "2",
            "type": "t_uint256"
          },
          {
            "astId": 169,
            "contract": "contracts/Voting.sol:Voting",
            "label": "commentTime",
            "offset": 0,
            "slot": "3",
            "type": "t_uint256"
          },
          {
            "astId": 171,
            "contract": "contracts/Voting.sol:Voting",
            "label": "percentageOfAgreement",
            "offset": 0,
            "slot": "4",
            "type": "t_uint256"
          }
        ],
        "numberOfBytes": "160"
      },
      "t_struct(Vote)194_storage": {
        "encoding": "inplace",
        "label": "struct Voting.Vote",
        "members": [
          {
            "astId": 190,
            "contract": "contracts/Voting.sol:Voting",
            "label": "voter",
            "offset": 0,
            "slot": "0",
            "type": "t_address"
          },
          {
            "astId": 193,
            "contract": "contracts/Voting.sol:Voting",
            "label": "vote",
            "offset": 20,
            "slot": "0",
            "type": "t_enum(OPTION)161"
          }
        ],
        "numberOfBytes": "32"
      },
      "t_uint256": {
        "encoding": "inplace",
        "label": "uint256",
        "numberOfBytes": "32"
      }
    }
  }
}